:020000040800F2
:10000000B8250020594700086145000863450008ED
:1000100065450008674500086945000800000000C4
:100020000000000000000000000000006B45000818
:100030006D450008000000006F450008714500088C
:10004000694700086D4700087147000875470008B8
:10005000794700087D470008814700088547000868
:10006000894700088D47000891470008BD450008F2
:1000700095470008994700089D470008A1470008D8
:10008000A5470008A9470008AD470008B147000888
:10009000B5470008B9470008BD470008C147000838
:1000A000C5470008C9470008CD470008D1470008E8
:1000B000D5470008D947000800000000DD470008C8
:1000C000E14700080000000000000000E5470008CC
:1000D00000000000E9470008ED470008F14700086C
:1000E000F5470008F9470008000000000000000084
:1000F0000000000000000000000000000000000000
:1001000000000000000000000000000000000000EF
:100110000000000000000000FD4700080148000842
:1001200000000000000000000000000000000000CF
:1001300000000000000000000000000000000000BF
:100140000548000809480008000000000000000001
:10015000000000000000000000000000000000009F
:10016000000000000000000000000000000000008F
:10017000000000000000000000000000000000007F
:10018000000000000D4800080000803F0000000053
:1001900011FB7F3F900E493C43EC7F3FB00AC93CC6
:1001A00098D37F3F2CC3163D0FB17F3F2FFB483DB7
:1001B000AB847F3F742B7B3D6D4E7F3F05A9963D01
:1001C000580E7F3F80B6AF3D6DC47E3F36BDC83D03
:1001D000B0707E3F2EBCE13D24137E3F73B2FA3DEA
:1001E000CCAB7D3F86CF093EAC3A7D3F8340163E87
:1001F000C9BF7C3FB6AB223E283B7C3FA2102F3EBE
:10020000CDAC7B3FCF6E3B3EBE147B3FC2C5473E6D
:1002100002737A3F0115543E9DC7793F135C603EDF
:100220009812793F7F9A6C3EF853783FCCCF783E56
:10023000C58B773FC07D823E07BA763F938E883E5E
:10024000C6DE753F229A8E3E0BFA743F31A0943E73
:10025000DD0B743F86A09A3E4714733FE59AA03E9B
:100260005213723F128FA63E0809713FD47CAC3EF8
:1002700073F56F3FEF63B23E9ED86E3F2A44B83E9F
:1002800093B26D3F4A1DBE3E5E836C3F15EFC33E89
:100290000C4B6B3F53B9C93EA7096A3FCA7BCF3E9F
:1002A0003CBF683F4136D53ED86B673F80E8DA3EB9
:1002B000880F663F4F92E03E59AA643F7533E63E91
:1002C0005A3C633FBBCBEB3E98C5613FEA5AF13ED7
:1002D0002146603FCBE0F63E05BE5E3F275DFC3E1B
:1002E000532D5D3FE4E7003F1A945B3F3D9C033F85
:1002F0006AF2593F824B063F5348583F9BF5083FEF
:10030000E595563F6B9A0B3F31DB543FDA390E3F90
:100310004918533FCDD3103F3D4D513F2A68133FFD
:100320001F7A4F3FD9F6153F029F4D3FC07F183FC0
:10033000F8BB4B3FC6021B3F12D1493FD17F1D3F47
:1003400065DE473FCBF61F3F03E4453F9967223FF9
:1003500000E2433F25D2243F70D8413F5636273F25
:1003600067C73F3F1594293FF9AE3D3F4AEB2B3F0E
:100370003B8F3B3FDE3B2E3F4268393FBB85303FE2
:10038000233A373FC9C8323FF304353FF304353FC2
:10039000C9C8323F233A373FBB85303F4268393FB7
:1003A000DE3B2E3F3B8F3B3F4AEB2B3FF9AE3D3FC1
:1003B0001594293F67C73F3F5636273F70D8413FC6
:1003C00025D2243F00E2433F9967223F03E4453FA3
:1003D000CBF61F3F65DE473FD17F1D3F12D1493F1E
:1003E000C6021B3FF8BB4B3FC07F183F029F4D3FEB
:1003F000D9F6153F1F7A4F3F2A68133F3D4D513FB5
:10040000CDD3103F4918533FDA390E3F31DB543F0B
:100410006B9A0B3FE595563F9BF5083F5348583F75
:10042000824B063F6AF2593F3D9C033F1A945B3F63
:10043000E4E7003F532D5D3F275DFC3E05BE5E3F78
:10044000CBE0F63E2146603FEA5AF13E98C5613F57
:10045000BBCBEB3E5A3C633F7533E63E59AA643F43
:100460004F92E03E880F663F80E8DA3ED86B673FE8
:100470004136D53E3CBF683FCA7BCF3EA7096A3FA5
:1004800053B9C93E0C4B6B3F15EFC33E5E836C3FC7
:100490004A1DBE3E93B26D3F2A44B83E9ED86E3F81
:1004A000EF63B23E73F56F3FD47CAC3E0809713FF9
:1004B000128FA63E5213723FE59AA03E4714733F37
:1004C00086A09A3EDD0B743F31A0943E0BFA743F38
:1004D000229A8E3EC6DE753F938E883E07BA763FDF
:1004E000C07D823EC58B773FCCCF783EF853783FB6
:1004F0007F9A6C3E9812793F135C603E9DC7793FAE
:100500000115543E02737A3FC2C5473EBE147B3F7D
:10051000CF6E3B3ECDAC7B3FA2102F3E283B7C3FB5
:10052000B6AB223EC9BF7C3F8340163EAC3A7D3F0E
:1005300086CF093ECCAB7D3F73B2FA3D24137E3F9C
:100540002EBCE13DB0707E3F36BDC83D6DC47E3FE0
:1005500080B6AF3D580E7F3F05A9963D6D4E7F3F5B
:10056000742B7B3DAB847F3F2FFB483D0FB17F3F1A
:100570002CC3163D98D37F3FB00AC93C43EC7F3F64
:10058000900E493C11FB7F3F000000000000803FBF
:10059000900E49BC11FB7F3FB00AC9BC43EC7F3FC2
:1005A0002CC316BD98D37F3F2FFB48BD0FB17F3FB3
:1005B000742B7BBDAB847F3F05A996BD6D4E7F3FFD
:1005C00080B6AFBD580E7F3F36BDC8BD6DC47E3FFF
:1005D0002EBCE1BDB0707E3F73B2FABD24137E3FE6
:1005E00086CF09BECCAB7D3F834016BEAC3A7D3F83
:1005F000B6AB22BEC9BF7C3FA2102FBE283B7C3FBA
:10060000CF6E3BBECDAC7B3FC2C547BEBE147B3F69
:10061000011554BE02737A3F135C60BE9DC7793FDB
:100620007F9A6CBE9812793FCCCF78BEF853783F52
:10063000C07D82BEC58B773F938E88BE07BA763F5A
:10064000229A8EBEC6DE753F31A094BE0BFA743F6F
:1006500086A09ABEDD0B743FE59AA0BE4714733F97
:10066000128FA6BE5213723FD47CACBE0809713FF4
:10067000EF63B2BE73F56F3F2A44B8BE9ED86E3F9B
:100680004A1DBEBE93B26D3F15EFC3BE5E836C3F85
:1006900053B9C9BE0C4B6B3FCA7BCFBEA7096A3F9B
:1006A0004136D5BE3CBF683F80E8DABED86B673FB5
:1006B0004F92E0BE880F663F7533E6BE59AA643F8D
:1006C000BBCBEBBE5A3C633FEA5AF1BE98C5613FD3
:1006D000CBE0F6BE2146603F275DFCBE05BE5E3F17
:1006E000E4E700BF532D5D3F3D9C03BF1A945B3F81
:1006F000824B06BF6AF2593F9BF508BF5348583FEB
:100700006B9A0BBFE595563FDA390EBF31DB543F8C
:10071000CDD310BF4918533F2A6813BF3D4D513FF9
:10072000D9F615BF1F7A4F3FC07F18BF029F4D3FBC
:10073000C6021BBFF8BB4B3FD17F1DBF12D1493F43
:10074000CBF61FBF65DE473F996722BF03E4453FF5
:1007500025D224BF00E2433F563627BF70D8413F21
:10076000159429BF67C73F3F4AEB2BBFF9AE3D3F0A
:10077000DE3B2EBF3B8F3B3FBB8530BF4268393FDE
:10078000C9C832BF233A373FF30435BFF304353FBE
:10079000233A37BFC9C8323F426839BFBB85303FB3
:1007A0003B8F3BBFDE3B2E3FF9AE3DBF4AEB2B3FBD
:1007B00067C73FBF1594293F70D841BF5636273FC2
:1007C00000E243BF25D2243F03E445BF9967223F9F
:1007D00065DE47BFCBF61F3F12D149BFD17F1D3F1A
:1007E000F8BB4BBFC6021B3F029F4DBFC07F183FE7
:1007F0001F7A4FBFD9F6153F3D4D51BF2A68133FB1
:10080000491853BFCDD3103F31DB54BFDA390E3F07
:10081000E59556BF6B9A0B3F534858BF9BF5083F71
:100820006AF259BF824B063F1A945BBF3D9C033F5F
:10083000532D5DBFE4E7003F05BE5EBF275DFC3E74
:10084000214660BFCBE0F63E98C561BFEA5AF13E53
:100850005A3C63BFBBCBEB3E59AA64BF7533E63E3F
:10086000880F66BF4F92E03ED86B67BF80E8DA3EE4
:100870003CBF68BF4136D53EA7096ABFCA7BCF3EA1
:100880000C4B6BBF53B9C93E5E836CBF15EFC33EC3
:1008900093B26DBF4A1DBE3E9ED86EBF2A44B83E7D
:1008A00073F56FBFEF63B23E080971BFD47CAC3EF5
:1008B000521372BF128FA63E471473BFE59AA03E33
:1008C000DD0B74BF86A09A3E0BFA74BF31A0943E34
:1008D000C6DE75BF229A8E3E07BA76BF938E883EDB
:1008E000C58B77BFC07D823EF85378BFCCCF783EB2
:1008F000981279BF7F9A6C3E9DC779BF135C603EAA
:1009000002737ABF0115543EBE147BBFC2C5473E79
:10091000CDAC7BBFCF6E3B3E283B7CBFA2102F3EB1
:10092000C9BF7CBFB6AB223EAC3A7DBF8340163E0A
:10093000CCAB7DBF86CF093E24137EBF73B2FA3D98
:10094000B0707EBF2EBCE13D6DC47EBF36BDC83DDC
:10095000580E7FBF80B6AF3D6D4E7FBF05A9963D57
:10096000AB847FBF742B7B3D0FB17FBF2FFB483D16
:1009700098D37FBF2CC3163D43EC7FBFB00AC93C60
:1009800011FB7FBF900E493C000080BF00000000BB
:1009900011FB7FBF900E49BC43EC7FBFB00AC9BCBE
:1009A00098D37FBF2CC316BD0FB17FBF2FFB48BDAF
:1009B000AB847FBF742B7BBD6D4E7FBF05A996BDF9
:1009C000580E7FBF80B6AFBD6DC47EBF36BDC8BDFB
:1009D000B0707EBF2EBCE1BD24137EBF73B2FABDE2
:1009E000CCAB7DBF86CF09BEAC3A7DBF834016BE7F
:1009F000C9BF7CBFB6AB22BE283B7CBFA2102FBEB6
:100A0000CDAC7BBFCF6E3BBEBE147BBFC2C547BE65
:100A100002737ABF011554BE9DC779BF135C60BED7
:100A2000981279BF7F9A6CBEF85378BFCCCF78BE4E
:100A3000C58B77BFC07D82BE07BA76BF938E88BE56
:100A4000C6DE75BF229A8EBE0BFA74BF31A094BE6B
:100A5000DD0B74BF86A09ABE471473BFE59AA0BE93
:100A6000521372BF128FA6BE080971BFD47CACBEF0
:100A700073F56FBFEF63B2BE9ED86EBF2A44B8BE97
:100A800093B26DBF4A1DBEBE5E836CBF15EFC3BE81
:100A90000C4B6BBF53B9C9BEA7096ABFCA7BCFBE97
:100AA0003CBF68BF4136D5BED86B67BF80E8DABEB1
:100AB000880F66BF4F92E0BE59AA64BF7533E6BE89
:100AC0005A3C63BFBBCBEBBE98C561BFEA5AF1BECF
:100AD000214660BFCBE0F6BE05BE5EBF275DFCBE13
:100AE000532D5DBFE4E700BF1A945BBF3D9C03BF7D
:100AF0006AF259BF824B06BF534858BF9BF508BFE7
:100B0000E59556BF6B9A0BBF31DB54BFDA390EBF88
:100B1000491853BFCDD310BF3D4D51BF2A6813BFF5
:100B20001F7A4FBFD9F615BF029F4DBFC07F18BFB8
:100B3000F8BB4BBFC6021BBF12D149BFD17F1DBF3F
:100B400065DE47BFCBF61FBF03E445BF996722BFF1
:100B500000E243BF25D224BF70D841BF563627BF1D
:100B600067C73FBF159429BFF9AE3DBF4AEB2BBF06
:100B70003B8F3BBFDE3B2EBF426839BFBB8530BFDA
:100B8000233A37BFC9C832BFF30435BFF30435BFBA
:100B9000C9C832BF233A37BFBB8530BF426839BFAF
:100BA000DE3B2EBF3B8F3BBF4AEB2BBFF9AE3DBFB9
:100BB000159429BF67C73FBF563627BF70D841BFBE
:100BC00025D224BF00E243BF996722BF03E445BF9B
:100BD000CBF61FBF65DE47BFD17F1DBF12D149BF16
:100BE000C6021BBFF8BB4BBFC07F18BF029F4DBFE3
:100BF000D9F615BF1F7A4FBF2A6813BF3D4D51BFAD
:100C0000CDD310BF491853BFDA390EBF31DB54BF03
:100C10006B9A0BBFE59556BF9BF508BF534858BF6D
:100C2000824B06BF6AF259BF3D9C03BF1A945BBF5B
:100C3000E4E700BF532D5DBF275DFCBE05BE5EBF70
:100C4000CBE0F6BE214660BFEA5AF1BE98C561BF4F
:100C5000BBCBEBBE5A3C63BF7533E6BE59AA64BF3B
:100C60004F92E0BE880F66BF80E8DABED86B67BFE0
:100C70004136D5BE3CBF68BFCA7BCFBEA7096ABF9D
:100C800053B9C9BE0C4B6BBF15EFC3BE5E836CBFBF
:100C90004A1DBEBE93B26DBF2A44B8BE9ED86EBF79
:100CA000EF63B2BE73F56FBFD47CACBE080971BFF1
:100CB000128FA6BE521372BFE59AA0BE471473BF2F
:100CC00086A09ABEDD0B74BF31A094BE0BFA74BF30
:100CD000229A8EBEC6DE75BF938E88BE07BA76BFD7
:100CE000C07D82BEC58B77BFCCCF78BEF85378BFAE
:100CF0007F9A6CBE981279BF135C60BE9DC779BFA6
:100D0000011554BE02737ABFC2C547BEBE147BBF75
:100D1000CF6E3BBECDAC7BBFA2102FBE283B7CBFAD
:100D2000B6AB22BEC9BF7CBF834016BEAC3A7DBF06
:100D300086CF09BECCAB7DBF73B2FABD24137EBF94
:100D40002EBCE1BDB0707EBF36BDC8BD6DC47EBFD8
:100D500080B6AFBD580E7FBF05A996BD6D4E7FBF53
:100D6000742B7BBDAB847FBF2FFB48BD0FB17FBF12
:100D70002CC316BD98D37FBFB00AC9BC43EC7FBF5C
:100D8000900E49BC11FB7FBF00000080000080BFB7
:100D9000900E493C11FB7FBFB00AC93C43EC7FBFBA
:100DA0002CC3163D98D37FBF2FFB483D0FB17FBFAB
:100DB000742B7B3DAB847FBF05A9963D6D4E7FBFF5
:100DC00080B6AF3D580E7FBF36BDC83D6DC47EBFF7
:100DD0002EBCE13DB0707EBF73B2FA3D24137EBFDE
:100DE00086CF093ECCAB7DBF8340163EAC3A7DBF7B
:100DF000B6AB223EC9BF7CBFA2102F3E283B7CBFB2
:100E0000CF6E3B3ECDAC7BBFC2C5473EBE147BBF61
:100E10000115543E02737ABF135C603E9DC779BFD3
:100E20007F9A6C3E981279BFCCCF783EF85378BF4A
:100E3000C07D823EC58B77BF938E883E07BA76BF52
:100E4000229A8E3EC6DE75BF31A0943E0BFA74BF67
:100E500086A09A3EDD0B74BFE59AA03E471473BF8F
:100E6000128FA63E521372BFD47CAC3E080971BFEC
:100E7000EF63B23E73F56FBF2A44B83E9ED86EBF93
:100E80004A1DBE3E93B26DBF15EFC33E5E836CBF7D
:100E900053B9C93E0C4B6BBFCA7BCF3EA7096ABF93
:100EA0004136D53E3CBF68BF80E8DA3ED86B67BFAD
:100EB0004F92E03E880F66BF7533E63E59AA64BF85
:100EC000BBCBEB3E5A3C63BFEA5AF13E98C561BFCB
:100ED000CBE0F63E214660BF275DFC3E05BE5EBF0F
:100EE000E4E7003F532D5DBF3D9C033F1A945BBF79
:100EF000824B063F6AF259BF9BF5083F534858BFE3
:100F00006B9A0B3FE59556BFDA390E3F31DB54BF84
:100F1000CDD3103F491853BF2A68133F3D4D51BFF1
:100F2000D9F6153F1F7A4FBFC07F183F029F4DBFB4
:100F3000C6021B3FF8BB4BBFD17F1D3F12D149BF3B
:100F4000CBF61F3F65DE47BF9967223F03E445BFED
:100F500025D2243F00E243BF5636273F70D841BF19
:100F60001594293F67C73FBF4AEB2B3FF9AE3DBF02
:100F7000DE3B2E3F3B8F3BBFBB85303F426839BFD6
:100F8000C9C8323F233A37BFF304353FF30435BFB6
:100F9000233A373FC9C832BF4268393FBB8530BFAB
:100FA0003B8F3B3FDE3B2EBFF9AE3D3F4AEB2BBFB5
:100FB00067C73F3F159429BF70D8413F563627BFBA
:100FC00000E2433F25D224BF03E4453F996722BF97
:100FD00065DE473FCBF61FBF12D1493FD17F1DBF12
:100FE000F8BB4B3FC6021BBF029F4D3FC07F18BFDF
:100FF0001F7A4F3FD9F615BF3D4D513F2A6813BFA9
:101000004918533FCDD310BF31DB543FDA390EBFFF
:10101000E595563F6B9A0BBF5348583F9BF508BF69
:101020006AF2593F824B06BF1A945B3F3D9C03BF57
:10103000532D5D3FE4E700BF05BE5E3F275DFCBE6C
:101040002146603FCBE0F6BE98C5613FEA5AF1BE4B
:101050005A3C633FBBCBEBBE59AA643F7533E6BE37
:10106000880F663F4F92E0BED86B673F80E8DABEDC
:101070003CBF683F4136D5BEA7096A3FCA7BCFBE99
:101080000C4B6B3F53B9C9BE5E836C3F15EFC3BEBB
:1010900093B26D3F4A1DBEBE9ED86E3F2A44B8BE75
:1010A00073F56F3FEF63B2BE0809713FD47CACBEED
:1010B0005213723F128FA6BE4714733FE59AA0BE2B
:1010C000DD0B743F86A09ABE0BFA743F31A094BE2C
:1010D000C6DE753F229A8EBE07BA763F938E88BED3
:1010E000C58B773FC07D82BEF853783FCCCF78BEAA
:1010F0009812793F7F9A6CBE9DC7793F135C60BEA2
:1011000002737A3F011554BEBE147B3FC2C547BE71
:10111000CDAC7B3FCF6E3BBE283B7C3FA2102FBEA9
:10112000C9BF7C3FB6AB22BEAC3A7D3F834016BE02
:10113000CCAB7D3F86CF09BE24137E3F73B2FABD90
:10114000B0707E3F2EBCE1BD6DC47E3F36BDC8BDD4
:10115000580E7F3F80B6AFBD6D4E7F3F05A996BD4F
:10116000AB847F3F742B7BBD0FB17F3F2FFB48BD0E
:1011700098D37F3F2CC316BD43EC7F3FB00AC9BC58
:1011800011FB7F3F900E49BC7CB504460020002532
:1011900000900CB9012076BD04F130063069C1061B
:1011A0004ED43069A0BB00217161F0613073B16130
:1011B000204600F02FFC20688168C80028D400F089
:1011C0004BF905463069C10622D4280020D1306988
:1011D000DFF86C22DFF86C3220F4885040F0020017
:1011E00030612068816821F0405181602068816809
:1011F00041F0805181600A201168B1FBF3F3434351
:10120000009302E00098401E009000980028F9D159
:1012100020688168CA0002D58068810010D53069D5
:1012200020F0020040F0100000F089F830693169C8
:1012300021F0020141F0100131610125284676BDFF
:101240003069C106F3D42800F1D1206881684A07CB
:10125000EDD4316921F4807141F002013161B0F1C6
:10126000A04F0CBFDFF8E0114FF0A041806800F004
:1012700085FA03D120680268D3070DD400F07DFA07
:1012800002D10868C10707D4DFF8C0110A68606896
:1012900022F4403202430A607168012914BF4FF4FE
:1012A00080530023607EE268A16843EA4033134321
:1012B00094F820200B43012A0ED130B9606A401EF9
:1012C00043EA404343F4803306E0306920F00200F3
:1012D00040F0200000F033F8A06A012802D0034358
:1012E000E06A03432168886810F00C0F0AD1CA68CD
:1012F000DFF86C010240CA60217E307843EA813316
:1013000043EA40032168DFF85C01CA6802401343E6
:10131000CB60216920680129016B05D1E2690909C7
:10132000521E42EA011101E009090901016300208E
:1013300070610120316960F3010131617EE7306144
:10134000706940F00100706170472DE9F843044670
:10135000884600F095F891466ED404F13C07397840
:10136000012908BF022069D00120DFF8E050387061
:10137000296811F01F0F5BD1204600F0C8FA002841
:10138000064652D17968DFF80401014041F48071CA
:101390007960012021682A6812F01F0F18BFB1F18F
:1013A000A04F06D17A6822F480127A60C9688A0157
:1013B0000BE07A68DFF8903042F4801299427A604C
:1013C00008D1DFF8C4100A68930103D5796860F387
:1013D0000D3179607868C10446BFB86820F0060016
:1013E0000020B860002139704B46A26BDFF8A000E6
:1013F0009062A16BDFF89C00C862A16BDFF89800D7
:1014000008631C2022681060424600F02DF8206816
:10141000C16841F00101C160206800F14001A06B8A
:1014200000F0B9FB00F026F807E00020387004E077
:1014300000210126397000E002263046BDE8F28323
:101440000C00002040420F00000100500803005033
:101450000446206881687047204600F081BA000089
:10146000FDBFFFFF07C0F0FF2068416841F0100199
:10147000416070472068816841F0040181607047D5
:1014800020688168480770470C000050FEF1FFFF9C
:10149000AD180008F1180008F91800082DE9F84106
:1014A0000023024602F13C040093084625780021FF
:1014B000012D08BF022000F0228101232370136850
:1014C0009D686E0700F11681476805681F26052F85
:1014D0004FF0060C0BD20CFB07F7D3F830C0BE4020
:1014E0002CEA060605FA07F737431F631DE00A2FAB
:1014F00008D27F1F17FB0CF7D3F834C000F001F9B6
:101500005D6312E00F2F08D20A3F17FB0CF7D3F8E8
:1015100038C000F0F6F89D6307E00F3F17FB0CF7AB
:10152000D3F83CC000F0EDF8DD6307251668B3681A
:1015300013F00C0F78D1036887680A2B0DD30A3B90
:1015400003EB430CD6F818E005FA0CF32EEA03037C
:1015500007FA0CF71F43B7610BE003EB430CD6F817
:1015600014E005FA0CF32EEA030307FA0CF71F4305
:10157000776113684769DE68D0F810E0F6087600F6
:1015800006F00606AEF1010E07FA06F6BEF1030FED
:10159000DFF840742ED8DFE80EF0020A1622D3F8E6
:1015A0006080D0F800C000F0C0F81E663CE0D3F8C0
:1015B00064C0D0F800E007EA0C0747EA8E6700F045
:1015C000B8F85E6630E0D3F868C0D0F800E007EA0B
:1015D0000C0747EA8E6700F0ACF89E6624E0D3F86B
:1015E0006CC0D0F800E007EA0C0747EA8E6700F00D
:1015F000A0F818E01E6E076800F0E7F813685E6E4A
:10160000076800F0D8F813689E6E076800F0C9F804
:101610001368DE6E076806F0F846B6EB876F03D1F5
:10162000DE6E26F00046DE6613689E6806F003064E
:10163000012E03D11E463768FE075DD406680127D8
:1016400007FA06F6C768012F02D000F067F806E037
:1016500000F05EF807688368166800F06EF80068AE
:10166000DFF87433102802D11D682E0203E0112820
:1016700003D11D68EE013FD404E012283CD11D685F
:101680006E0239D41568B5F1A04F0CBFDFF81862AF
:101690004FF0A046AF6807F00307012F03D12A4699
:1016A0001768FA0726D4B26802F00302012A02D1B1
:1016B0003268D6071ED410280CD1B5F1A04F1BD12B
:1016C00000F060F8009800281EBF0098401E0090AF
:1016D000F8D111E0112806D1B5F1A04F0CD118684E
:1016E00040F0807004E0122806D1186840F48000B1
:1016F000186001E000F03BF8002020700846BDE8CB
:10170000F281BE402CEA0606BD403543704700001A
:10171000D3F8B0703E43C3F8B0607047D3F8B05010
:1017200025EA0606C3F8B060704707EA080747EAEB
:101730008C673E4346F0004670470A2F0BD3093FA3
:1017400007EB4707D6F818C0BD402CEA0505BB409B
:101750001D43B56170477F1C07EB4707D6F814C0DF
:10176000BD402CEA0505BB401D43756170476068AC
:1017700040F02000606001217047886800F003009D
:10178000012870471868DFF85422DFF8545240F4FB
:10179000000018600A201368B3FBF5F54543009577
:1017A000704706F0F846B6EB876F03D19E6E26F0C1
:1017B00000469E66704706F0F846B6EB876F03D189
:1017C0005E6E26F000465E66704706F0F846B6EBA1
:1017D000876F03D11E6E26F000461E667047F0B577
:1017E00003680022B3F1A04F0CBF2F4D4FF0A0456E
:1017F00000F13004267B012E01D10220F0BD01262C
:1018000026739B685E0746D4AB685E0743D40B68BB
:10181000744E714F33B3D7F800C04B6894F800E0B2
:101820002CF4604C43EA0C0343EA4E3CC7F800C07A
:10183000D0F800C0DCF8083003F00303012B03D11B
:1018400060460368D8072BD4A868FFF797FF02D13A
:101850002868C30724D43D68086889682E40064379
:101860000E4316E03B6823F460433B6001688B68DD
:1018700003F00303012B03D108460168CB070FD403
:10188000A868FFF77BFF02D12868C10708D4386831
:1018900006403E6004E0216941F0200121610122FF
:1018A000002020731046F0BD00010050416A0A6C10
:1018B00012F0500F19D1086C40F4007008640A68E7
:1018C000D06810F4406F04BF487E00280AD1086C2D
:1018D00020F480700864086CC20403D4086C40F0E3
:1018E00001000864084600F00FBA896B0A6B1047C4
:1018F000406A00F00ABA0000406A016C41F0400101
:101900000164416C41F00401416400F0FFB938B555
:1019100004462168FFF731FF03D108460268D30768
:101920001CD488686FF39E1098B9886840F0010055
:10193000886000F001FA054620680168CA070DD4E6
:1019400000F0FAF9401B0328F6D320680168CA07A3
:10195000F2D4206C40F01000206434E0002032BD4E
:1019600038B5FFF775FD01F00301012929D10146C2
:101970000A68D30725D5816801F00D0101291BD123
:10198000816841F00201816003202168086000F055
:10199000D3F9054620688168C80712D500F0CCF954
:1019A000401B0328F6D320688168C807F2D5216C54
:1019B00041F01001216403E0206C40F0100020642D
:1019C00001E0002032BD606C40F001006064012045
:1019D00032BD000000F0FF83080300500C0000201F
:1019E00040420F00E0F0FFFF504881B0016841F035
:1019F00001010160026802F0010200920099426850
:101A000042F080524260406800F0805000900098A0
:101A100001B0704738B586B000F082F82168B1F1A6
:101A2000A04F33D14248434D016841F080510160DD
:101A3000026802F0805200920099026842F400327B
:101A400002600421006800F400300090032200F0DE
:101A500061F84FF0904001A900F074F93648286011
:101A600000218020E86069604FF4806000224FF41C
:101A700080716861AA602961AA61EA61284600F064
:101A800063F808B100F051FDA5636C6207B030BD8A
:101A900081B000682949884209D12448026842F48B
:101AA00000620260006800F400600090009801B0DD
:101AB000704781B000682249884209D121480268F4
:101AC00042F010020260006800F0100000900098E0
:101AD00001B0704710B586B000F022F821681748B1
:101AE000814215D11248016841F4003101604FF480
:101AF000E061006800F400300090022200F00AF873
:101B000004914FF090400621059101A900F01AF9C7
:101B100006B010BD00980191029200210391704718
:101B200004461422002101A800F001BD1810024053
:101B300014100240BC18002008000240002C014094
:101B4000001000401C10024010B5040001D101201B
:101B500010BD022084F82100226813686068A16823
:101B60006FF30D130343E0680B432169034360697E
:101B70000B43A1690343E0690B4303431360204611
:101B800000F0B1F80021A163012084F8210084F85D
:101B90002010002010BDF8B50446002594F8200060
:101BA000012801D10220F2BD94F821600120012E0C
:101BB00084F8200029D1022004F12C0684F82100A9
:101BC0000027F7602068D0F800C04FEA5C074FEAB2
:101BD000470CC0F800C0204600F074F82168306857
:101BE00020B10A6842F00E020A6008E0086840F07E
:101BF0000A0008602068016821F004010160206883
:101C0000016841F00101016002E084F820500225E2
:101C10002846F2BDF8B500F12802042351690C688A
:101C200001680D68966903FA06F73C420FD06F070A
:101C30000DD50C68A50603D40C6824F004040C60D0
:101C400000F03BF85168B9B3BDE8F44008470223FF
:101C500003FA06F73C4215D0AF0713D50C68A5066A
:101C600006D40C6824F00A040C60012180F82110CD
:101C700000F023F8002180F820101168E1B1BDE8E0
:101C8000F4400847082303FA06F6344214D02B0721
:101C900012D50C6824F00E040C60012300F00DF83E
:101CA0000121116180F82110002180F82010916835
:101CB00011B1BDE8F4400847F1BD916954698B400A
:101CC0006360704770B5046CC66B0125A5407560F4
:101CD000046863604068102802D1A260E16070BDB2
:101CE000A160E26070BD026805498A181423B2FB46
:101CF000F3F39B0003490364C163704700000000D5
:101D0000F8FFFDBF000002407047704770470EE0CB
:101D100002684368024408305FEAC37C44BF4B4416
:101D20005B1E52F804CB43F804CB091FF9D150F8DD
:101D3000041B0029ECD1704701484068704700BF80
:101D4000000000202DE9F84F00276E4A6E4B4FF03F
:101D50000F0805460E4638E06C4CA54214BF05241A
:101D600003248C406A4944EA0E0441F82C40C143E4
:101D7000D2F800C0746801EA0C0CE40348BF40EAE2
:101D80000C0CC2F800C0D2F804C0746801EA0C0C54
:101D9000A40348BF40EA0C0CC2F804C0D2F808C043
:101DA000746801EA0C0CE40248BF40EA0C0CC2F86B
:101DB00008C0D2F80CC001EA0C0C7168890248BF57
:101DC00040EA0C0CC2F80CC07F1C316831FA07F0F5
:101DD00000F08A800124BC4014EA0100F4D04FEAEC
:101DE000470C032101FA0CF16FEA010E716801F052
:101DF0000309B9F1010F1CBF01F00301022912D13F
:101E0000A968D6F80C900EEA010109FA0CF949EA22
:101E10000101A960696821EA04047168C1F3001135
:101E2000B9400C436C60B900347904F00304032C0E
:101E300021D0EC68D6F808900EEA040409FA0CF9EF
:101E400049EA0404EC60347904F00304022C12D152
:101E5000FC0805EB840401F01C09D4F820A008FA62
:101E600009FB2AEA0B0AD6F810B00BFA09F949EA7D
:101E70000A09C4F820902C680EEA040E347904F0A4
:101E8000030404FA0CF444EA0E0CC5F800C07468AC
:101E900014F4403F98D0D3F800C01D4C4CF0010C16
:101EA000C3F800C04FEA970CD3F800E00EF0010E23
:101EB000CDF800E001F00C01DDF800E054F82C4012
:101EC00008FA01FE24EA0E0EB5F1904F08BF002477
:101ED00009D0104CA54208BF012404D00E4CA542E5
:101EE0007FF43AAF02243CE7BDE8F18F0069084077
:101EF00018BF0120C0B270470AB18161704781628A
:101F0000704700000004014018100240000C004817
:101F10000800014000040048000800482DE9F84F7F
:101F20002DED028B96B000F00DFB00F0DFF900F014
:101F300019FADFF8A855DFF8A845286840F4003002
:101F40002860296801F4003105910598296841F459
:101F5000802129604FF400612A6802F480220592F2
:101F6000012205984FF09040FFF7C6FF0122302173
:101F70002046FFF7C1FF41F20800002100900191C7
:101F800002914FF090406946FFF7DCFEF0200321FC
:101F9000009001910022029269464FF09040FFF7B5
:101FA000D1FE0A200021009001910291204669464D
:101FB000FFF7C8FE4FF4006100F089F94FF0904040
:101FC000FFF7C0FE302100F082F92046FFF7BAFE8D
:101FD00006A800F085F9182100F0C5F9DFF80445DE
:101FE0004FF0A040206000214FF45070A06261606B
:101FF0002161617684F8201001204FF48061E06156
:10200000E16204F1300000220021A260E160017071
:10201000217604220121626141602046FFF7B4F875
:1020200008B100F082FA0020069006A92046FFF7CA
:10203000D6FB08B100F079FA0321009101220021BA
:102040000391029104910591019269462046FFF7A0
:1020500025FA08B100F069FA00F041F91C2103A843
:1020600000F082FA2C210AA800F07EFADFF87864EA
:10207000DFF87804306000214FF6FF70F060716087
:10208000B16031617161B161304600F0C4FA08B1EC
:1020900000F04BFA00200090019002906946304613
:1020A00000F0A6FD08B100F040FA60200021039086
:1020B000049100220691089105920792099200F07E
:1020C000F2F808B100F031FA042200F0ECF808B19F
:1020D00000F02BFA082200F0E6F808B100F025FA2B
:1020E00000204FF400510A900B900C900D900E9030
:1020F0000F91109011904FF0007213901490129263
:102100000AA9304600F0A6FD08B100F00EFA3046EC
:10211000FFF7E0FC286840F00100286000222968F1
:1021200001F001010091002100980B2000F0F2FD68
:102130000B2000F00CFE00F0D2F804F654054FF42A
:10214000FA70DFF8AC13E86029606A60AA60AA61DF
:10215000284600F00DFA08B100F0E7F920210091BF
:10216000002202926946284600F042FD08B100F0C4
:10217000DCF904F5C55140F281500A68DFF8747348
:10218000DFF87483DFF87493DFF874A3DFF874B3B7
:10219000106004F50A66284600F0F7F9DFF86803D6
:1021A000602100228160C2604261C2610021602220
:1021B0000161816101624262816201638163002287
:1021C0006021C2624263C263016442648264C26489
:1021D00002654265826504F150059FED7D8A02E04B
:1021E0002978002944D19BF8000010B100218BF818
:1021F00000109AF8000098B100218AF80010E878E1
:10220000401CE870E878411C0A28E97008DB0020CF
:10221000E8704FF4806204F154012046FFF795F80E
:1022200099F8000028B1002189F8001000F0BAFDEB
:10223000A87098F8000010B1002188F800103868E4
:10224000F0B100213960002000F031F8B1F5007FD5
:1022500082ED000A5360F7DB012300223146AB48D0
:1022600001F079F84FF40072A949304601F0D8F82E
:102270000020287000F07AF8687800F0ABF8B2E738
:10228000A44908680028ABD0A248002101600020C2
:102290004FF4007100F00BF8B1F5806F82ED000A89
:1022A0005360F7DBD8E703A9304600F0A2BA04F187
:1022B000540306EB800233F811C000EE10CAB8EEEA
:1022C000400A801C491C30EE080A00237047009128
:1022D00001220021029103910192694670476846EC
:1022E00000210022002380E80E00704700B595B061
:1022F00028210BA800F038F900F034F8182105A8BF
:1023000000F032F9022101220B910F9210210222DA
:102310001091129200214FF40022139114920BA8F5
:1023200001F02AF908B100F000F90F200090002117
:102330000191029103910491684601F0A5FA08B158
:1023400072B6FEE74FF4845005904FF4807100227E
:1023500009910A9205A801F05BFB08B172B6FEE78D
:1023600015B000BD1421684600F0FEB870B501201C
:102370000021674A02EB8003401C93ED000ABDEE8A
:10238000C00A10EE104A61181228F3DB002309E09E
:1023900002EB8004401C94ED000ABDEEC00A10EE72
:1023A000105AEB182D28F3DB002409E002EB80051E
:1023B000401C95ED000ABDEEC00A10EE106A3419FB
:1023C0008C28F3DB504844808380018070BD00007E
:1023D0000040F8C438B54C4CA28823886188D518D1
:1023E0004D19ADB200EE105A41F65935AB42B8EE78
:1023F000400ADFED390A07DB01EE103A00F08CF8F5
:1024000011EE103A9BB200E00023A94207DB01EE77
:10241000101A00F081F811EE101A89B200E00021C4
:10242000AA420DDB01EE102AB8EE411A81EE000A35
:1024300020EE200ABDEEC00A10EE102A92B200E093
:102440000022401E042814D8DFE800F00306090C1F
:10245000100010461D4607E0084615460CE01046E1
:102460000D4609E0184615460B4605E008461D4690
:1024700001E018460D4613466564E060A362002142
:10248000194D284600F03DF90421284600F039F99D
:102490000821284600F035F9042204F108012846F5
:1024A00000F0A7F9002204F14001284600F0A1F94C
:1024B000082204F12401284600F09BF90021284657
:1024C00000F0B6F80421284600F0B2F82846BDE82E
:1024D0003440082100F0ACB800409C451410024084
:1024E000000400481C0000205C210020002C01405A
:1024F00000100040A821002013000020120000203E
:102500001100002010000020002100204847000892
:1025100000190020AC210020B8EE411A81EE001A0B
:1025200021EE201ABDEEC11A704772B6FEE710B553
:10253000044610460A460146204601F0EFFA2046BE
:1025400010BD000080B50748016841F0100101602E
:10255000032000F0D2FB0F2001F014FBFFF744FA38
:10256000002002BD00200240002201F02BBB000031
:1025700038B5040001D1012032BD00F031F918B99D
:1025800000F0C0F9FFF795FA29E090F83D10012915
:1025900001D001207047022180F83D10DFF8282289
:1025A0000168914218BFB1F1804F07D0DFF81C22BB
:1025B00091421CBFDFF81832994209D18A68DFF8CE
:1025C00014120A40062A18BFB2F5803F05D00168F0
:1025D0000A68084642F001020260002070470220AB
:1025E0006870211D206800F091F9012028730121F5
:1025F000A970E87029716871A971E871297268720F
:10260000A972E8726970002032BD05460C46286840
:10261000002200F0DFBA38B5040001D1012032BD3C
:1026200000F0DEF818B900F06DF9FFF731FAD6E7DF
:1026300038B5044604F13E0009B902780FE00429D8
:1026400008BF42780BD0082908BF827807D00C2930
:1026500008BFC27803D010290CBF02794279012A41
:1026600001D0012032BD11B90222027014E0042908
:1026700002D1022242700FE0082902D102228270A8
:102680000AE00C2902D10222C27005E0102907BF1E
:1026900002220271022343712068012200F09AFA9B
:1026A00000F02AF818BF884206D000F07DF81CBF61
:1026B000DFF82451A84201D100F019F820689042B7
:1026C00018BFB0F1804F04D000F00EF818BF884258
:1026D00006D100F06DF818BFB1F5803F02D0206838
:1026E00000F06BF8002032BD384A90427047436CCE
:1026F00043F40043436470472068334A34499042AE
:10270000704770B5FFF781FF00F036F81CBF304E00
:10271000B14207D0DFF8C43099421CBFDFF8B8607F
:10272000B14206D10B6A134204BF0B6A034200F0A8
:102730002BF829680B6A134204BF096A014200F0B2
:1027400029F814B90121017014E0042C02D10121EF
:1027500041700FE0082C02D1012181700AE00C2C9D
:1027600002D10121C17005E0102C07BF01210171C8
:1027700001224271002070BD2968134B40F2444091
:1027800041F211129942704703D14B6C23F400437C
:102790004B64704705D12868016849080246490022
:1027A000116005F13E007047DFF830309842704705
:1027B000816808480140062970470168024641F0D7
:1027C0000101116070470000002C0140000400402E
:1027D0000040014007000100004801400044014062
:1027E00004F13C0568787047002084F83C002846D6
:1027F000704770B500F07FF801D1022070BD012054
:1028000084F83C0052B1042A19D0082A29D00C2A95
:1028100038D0102A48D0142A57D068E0206800F039
:10282000B2F82168886940F008008861886920F062
:10283000040088618A69306902438A6158E020682F
:1028400000F0D8F82068816941F4006181618169F4
:1028500021F4806181618169326941EA02218161EB
:1028600046E0206800F0F8F82168C86940F00800E8
:10287000C861C86920F00400C861CA6930690243B0
:10288000CA6135E0206800F018F92068C16941F498
:102890000061C161C16921F48061C161C1693269AE
:1028A00041EA0221C16123E0206800F02BF9216890
:1028B000486D40F008004865486D20F00400486508
:1028C0004A6D306902434A6512E0206800F042F91F
:1028D0002068416D41F400614165416D21F48061E2
:1028E0004165416D326941EA0221416500E00125FF
:1028F000FFF77AFF70BD0446002594F83C000128DC
:102900000E4670470021297020467047F0B50368D5
:10291000DFF89CC2DFF89C42DFF89C52DFF89C6233
:10292000DFF89C7260451CBFB0F1804FB84208D1FF
:102930004A6823F070031343604518BFB0F1804F1D
:1029400007D0B84218BFB04203D0A84218BFA04277
:1029500003D1CA6823F4407313434A6923F0800308
:102960001343036060458B68C3620A68826218BFC4
:10297000B04203D0A84218BFA04201D10969016347
:1029800001224261F0BDF0B5026ADFF824E28A4F0D
:10299000DFF828C2520852000262066A446885695C
:1029A000884A0B6815408A6826F002061D431643C4
:1029B000804B704518BF604503D0B84218BF98429D
:1029C0000AD1CA6826F00806164326F004067045A8
:1029D0001CBF6045B84201D0984205D14B698A6955
:1029E00024F440741C431443446085614968416386
:1029F0000662F0BD70B5026A22F010020262046A3B
:102A000045688369704A0E68134043EA06238A6862
:102A1000674E24F02004B04244EA021407D1CA6889
:102A200024F0800444EA021424F0400407E0634ADE
:102A300090421FBF604EB0425E4A904206D14E693E
:102A40008A6925F44065164345EA86054560836139
:102A500049688163046270BD70B5026A594B22F403
:102A600080720262056A4668C4690A681C401443A1
:102A70008B684F4A25F40075904245EA032507D13B
:102A8000CA6825F4006545EA022525F4806507E05B
:102A90004A4A90421FBF484B9842464A904206D14C
:102AA0004B698A6926F44056134346EA031646608A
:102AB000C4614968C163056270BD70B5026A22F4E1
:102AC00080520262056A4368C4693F4A00F067F8B1
:102AD00025F4005545EA0235B0421CBF374A904202
:102AE00005D0354EB0421CBF324A904204D14A69EB
:102AF00023F4804343EA82134360C461496801645C
:102B0000056270BD70B5026A304B22F480320262F9
:102B1000066A4468456D0A681D4015438B68244A5F
:102B200026F4003646EA034690421CBF234B9842E7
:102B300005D0214A90421CBF1E4B984204D14A69DD
:102B400024F4803444EA0224446045654968816580
:102B5000066270BD70B5026A22F480120262056AD4
:102B60004368446D1A4A00F01AF825F4001545EA46
:102B70000255B0421CBF114A904205D00E4EB042E1
:102B80001CBF0C4A904204D14A6923F4802343EAD3
:102B90008223436044654968C165056270BD0E6863
:102BA000144044EA06248A68014E70470000000081
:102BB000002C014000480140004401400040014019
:102BC000000400408CFFFEFFFF8CFFFE8FFFFEFF26
:102BD000FF8FFFFE10B501F01F01036A01248C4036
:102BE000A343036202FA01F1036A1943016210BDB3
:102BF000F0B500F13C042278012A01D10220F0BD99
:102C000001222270022363700568DFF8C8C06E6875
:102C1000AF68654503D14B6826F470061E430A6809
:102C200026F0700616436E600268624518BFB2F166
:102C3000804F05D0284882421CBF284B9A4204D1BD
:102C4000886827F0800707439760012161700020A2
:102C50002070F0BD10B590F83C20012A01D102206F
:102C600010BD012280F83C20CC688B684A6824F4AF
:102C700040741C4324F4806414430B680A6924F4F0
:102C800000641C4324F4805414434B698A6A24F47E
:102C900000541C4324F4804414438B690D4A24F4EB
:102CA000702444EA0344036893420CD14A6A24F432
:102CB000700444EA0254CA69096A24F08074144317
:102CC00024F000740C435C64002280F83C20002057
:102CD00010BD0000002C01400004004000400140F5
:102CE0000901020002D4294881547047284B02F0A0
:102CF0000F021A4402F8041C7047264B19684FF65D
:102D0000FF020002114000F4E0600843224908433A
:102D10001860704770B51F4B1C68C4F30223012470
:102D2000C3F10705052D2EBF0F2504FA05F56D1E0D
:102D30001E1D072E34BF0023DB1E2940994004FAD4
:102D400003F3BDE870405B1E1A401143C8E7010061
:102D500007D4012200F01F01104B8A40400943F8BC
:102D60002020704710B5401EB0F1807F01D30120B4
:102D700010BD0B4C60600F214FF0FF30FFF7B0FF2C
:102D80000021A16007202060002010BD00E400E0C9
:102D900018ED00E00CED00E00000FA0500E100E0B5
:102DA00010E000E038B50E4C02212046FFF79EF8F7
:102DB000054608212046FFF799F8082184004FF0C6
:102DC0009040FFF793F844EAC50444EA40044FF406
:102DD00080514FF09040FFF789F80443E0B232BDD4
:102DE000000400482DE9F04105462DED048B2F88A5
:102DF0006A6801EB87037F0894460C46984601EB0E
:102E0000870E03EB8706B8088FE091ED000A93ED7B
:102E1000002AD1ED010A91ED021AD1ED031AD3ED8A
:102E2000012A93ED023AD3ED033A9EED004ADEED1E
:102E3000014A9EED025ADEED035A96ED006AD6ED88
:102E4000016A96ED027AD6ED037A30EE028A30EE10
:102E5000420A81ED008A34EE062A30EEA28A71EE33
:102E6000038A31EEA39A71EEE31A77EEE53A70EE3B
:102E7000E20A31EE431A81ED018AC1ED028A81ED49
:102E8000039A8EED002A34EEA62A75EE072A35EE57
:102E9000A73A10318EED012A36EE442ACEED022AF1
:102EA00076EEE42A8EED033A37EE453A9CED004A81
:102EB000DCED014A20EE045A00EEA45A60EE840ACA
:102EC00083ED005A40EE640A22EE240AC3ED010AA3
:102ED00002EEC40A86ED000A22EEA40A02EE040AFB
:102EE00086ED010A9CED020ADCED030A21EE002AC0
:102EF00001EEA02A61EE801A41EE601A23EE201A3C
:102F000063EEA00A03EEC01A43EE000A83ED022A24
:102F1000C3ED031A86ED021AC6ED030A103310360C
:102F20000EF1100E0CF1100C401E7FF46EAF022358
:102F30003946204600F060FE6A68BDEC048B3946D5
:102F40004046BDE8F041022300F056BE2DE9F84F9F
:102F50002DED048B044686B026880591760801EB9A
:102F6000860202EB860303EB860504920393029527
:102F7000A5F1040C676801970CEB860E76080096A5
:102F8000D3ED000A91ED001AD3ED011A91ED012A5B
:102F9000D2ED014A95ED014AD2ED005A95ED005A65
:102FA00031EE200A71EE600A32EE211A72EE611AD9
:102FB00030EEA42A71EE643A70EEE40A32EE442A4E
:102FC00073EEC43A70EE840A384671EEE52A30EEAC
:102FD000653A30EE250A30EE050A81ED000A71EE01
:102FE000A51A92ED014A95ED010A31EE041A00F19D
:102FF000080600F1100700F1180A72EE852A33EE78
:10300000453A71EEC51A31EE000AA2F10408A3F1A7
:10301000040981ED010A82ED002AC2ED012A83ED47
:10302000003AC3ED013AC5ED000AC5ED011A0831B9
:103030000098083208330835801E4008F8E093ED08
:10304000000AD1ED000A30EE803A30EEC01A93ED5E
:10305000010AD1ED010AD2ED005AD2ED014A95EDF7
:10306000005A70EE803A70EEC02A72EEE50A72EEF7
:10307000A52A95ED014A31EE240A30EE852A72EE3A
:10308000C52A70EE441A73EE650A30EEC50A33EEB7
:10309000253A73EEE40A31EE641A33EE053A70EE27
:1030A000C40A31EE041A81ED003A92ED014A95ED21
:1030B000013A73EE843A33EE833A81ED013A0831F6
:1030C0005CF804BC9CED006A98ED007ADEED007AB5
:1030D00099ED008A03EE10BA58F804BC77EE066A40
:1030E00004EE10BA5EF804BC09EE10BA59F804BC3C
:1030F00009EE90BA36EEC85A76EE886A74EE033A54
:1031000074EE435A37EE464A34EE694A74EE094A81
:1031100078EE678A33EEE94A35EE675A76EEA76AAB
:10312000A9F1040B38EEA53A34EE494AC8ED006A1D
:1031300078EEE55A79EE698A36EE476A9BED007AB9
:10314000AEF1040B73EE873ADBED006AA8F1040BD5
:1031500038EE866A73EEA66ACBED006AA9F1040B1D
:10316000D6ED003AD6ED016A21EEA37A02EE267A78
:1031700022EE232A82ED007A01EEE62A64EEA61AF8
:1031800043EE631A82ED012AC9ED001A63EE261A96
:1031900044EEA31ACBED001AACF1040BD7ED001AE4
:1031A00097ED012A20EE213A00EE823A60EEA10A64
:1031B00083ED003A40EE420A25EE610A04EE420A2F
:1031C000C3ED010A8CED000A25EE020A04EE610A45
:1031D0008BED000AAEF1040B0836083210370833C5
:1031E0009AED000ADAED010A61EE001A42EEA01A29
:1031F000C5ED001A62EE801A41EE601A26EE201A22
:10320000C5ED011A05EEC01A65EEA00A08358EED6F
:10321000001A46EE000AA8F10808A9F10809ACF165
:10322000080C0AF1180ACBED000AAEF1080E401E98
:103230007FF405AFD3ED000A91ED001AD3ED011A2A
:1032400091ED012AD2ED014A95ED014AD2ED005AE5
:1032500095ED005A31EE200A71EE600A32EE211A25
:1032600072EE611A30EEA42A71EE643A70EEE40A4E
:1032700032EE442A73EEC43A70EE840A71EEE52A07
:1032800072EE852A30EE653A30EE250A30EE050AF8
:1032900081ED000A33EE453A92ED014A95ED010ABF
:1032A00031EE041A31EE000A81ED010A71EEA51A21
:1032B00096ED000A96ED011A22EE004A02EE814ACE
:1032C00022EE800A82ED004A02EE410A82ED010AF6
:1032D00071EEC51A97ED000A97ED011A23EE002A48
:1032E00003EE812A23EE800A83ED002A03EE410AD1
:1032F00083ED010A04239AED000A9AED011A20EEEB
:10330000802A01EE812A21EE800A85ED002A00EE56
:10331000C10A85ED010A0099019A059800F018F894
:1033200000996268049800F012F8009962680398A6
:1033300000F00DF862680298009906B00423BDEC15
:10334000048B89B201B0BDE8F04F00F055BC0423F6
:1033500089B200F051BC2DE9F04106461746358888
:10336000012F0C4698460CD1201D002107E090ED5E
:10337000000AB1EE400A80ED000A0830491CA9425B
:10338000F5D3102D15D0202D18D0402D1BD0802D19
:103390000FD0B5F5807F11D0B5F5007F13D0B5F50E
:1033A000806F06D0B5F5006F08D0B5F5805F0AD004
:1033B0000FE021463046FFF715FD0AE02146304672
:1033C000FFF7C4FD05E0726801232946204600F09E
:1033D00013FCB8F1000F04D0B268B189204600F0A8
:1033E000DCFE012F19D100EE105AB8EE400AF7EEBC
:1033F000000A80EE800A00200DE094ED001A21EE14
:10340000001A84ED001A401CD4ED010A60EEC00AD7
:10341000C4ED010A0834A842EFD3BDE8F0810000F2
:1034200030B40346900857D093ED000AD3ED010A5B
:1034300020EE000A00EEA00A0C1DB5EE400AF1EEE7
:1034400010FA04DBB1EEC00A81ED000A01E00025AC
:103450000D60211D93ED020AD3ED030A20EE000A50
:1034600000EEA00AB5EE400AF1EE10FA04DBB1EE70
:10347000C00A84ED000A01E0002525600C1D93EDD3
:10348000040AD3ED050A20EE000A00EEA00AB5EE0C
:10349000400AF1EE10FA04DBB1EEC00A81ED000A39
:1034A00002E000250D6000BF93ED060AD3ED070A88
:1034B00020EE000A00EEA00A2033211DB5EE400ADE
:1034C000F1EE10FA04DBB1EEC00A84ED000A01E06F
:1034D00000252560401EA7D112F003004AD0C20784
:1034E00016D593ED000AD3ED010A20EE000A0A4634
:1034F00000EEA00A0833091DB5EE400AF1EE10FAFD
:1035000004DBB1EEC00A82ED000A01E00024146081
:1035100040082FD093ED001AD3ED010A21EE010AE5
:1035200000EEA00A0C1DB5EE400AF1EE10FA03F110
:10353000080204DBB1EEC00A81ED000A01E00023BD
:103540000B60211D92ED000AD2ED011A20EE000A57
:1035500001EEA10AB5EE400AF1EE10FA02F10803FD
:1035600004DBB1EEC00A84ED000A01E00022226013
:10357000401ECFD130BC70472DE9F843040019D06C
:103580002078DFF84054C10716D5686800F00C00B9
:1035900004280AD0686800F00C00082802BF686898
:1035A00000F48030B0F5803F41D100F0E8F918B167
:1035B0006068002800F05F812078DFF818648107D8
:1035C0001BD5686810F00C0F07D0686800F00C007D
:1035D00008286CD16868C10369D42868C0F340002A
:1035E00000281CBF2069012840F0458129686069D6
:1035F00021F0F80141EAC00129602178080740F173
:103600008C80A069DFF8D013002878D001220A60EE
:10361000FEF792FB0746686AC0F3400000287CD1A1
:10362000FEF78AFBC01B0228F5D9032026E160685B
:10363000B0F5803F04D1286840F48030286014E061
:1036400008B928680AE0B0F5A02F286806D140F430
:1036500080202860296841F4803105E020F4803022
:103660002860296821F480212960E86AA16800099E
:1036700041EA0010E862606860B1FEF75DFB064653
:1036800000F07DF9002897D1FEF756FB801B6528D6
:10369000F6D3CAE7FEF750FB064600F070F90028A3
:1036A0008AD0FEF749FB801B6528F6D3BDE7206969
:1036B000B0B101213160FEF73FFB07462868C0F337
:1036C000400028B9FEF738FBC01B0228F6D9ACE74A
:1036D0002868616920F0F80040EAC10028608CE7A2
:1036E0003060FEF729FB07462868C0F34000002839
:1036F00083D0FEF721FBC01B0228F5D995E70860AF
:10370000FEF71AFB0746686AC0F3400028B1FEF7CF
:1037100013FBC01B0228F6D987E72078410763D541
:10372000E8690027C10009D4E86940F08050E861E9
:103730000127E86900F0805000900098DFF89C8233
:10374000D8F80000C10513D4D8F8000040F4807008
:10375000C8F80000FEF7F0FA8146D8F80000C1056D
:1037600006D4FEF7E9FAA0EB09006528F5D35CE77B
:10377000E068012808D008B9286A09E00528286A05
:1037800006D140F004002862286A40F0010005E0FC
:10379000400840002862286A20F00400286241F2B4
:1037A0008938E06868B1FEF7C7FA8146286AC0F335
:1037B0004000A0B9FEF7C0FAA0EB09004045F5D3E0
:1037C00033E7FEF7B9FA8146286AC0F3400030B10A
:1037D000FEF7B2FAA0EB09004045F5D325E71FB18B
:1037E000E86920F08050E861E069002845D0696808
:1037F00001F00C01082931D0022822D100F040F854
:1038000007462868C0F3406028B1FEF795FAC01B50
:103810000228F6D909E76868616A226A20F4741000
:10382000084310436860012000F02BF80446286824
:10383000C0F3406008BBFEF77FFA001B0228F6D9F0
:10384000F3E600F01DF804462868C0F34060A0B11C
:10385000FEF772FA001B0228F6D9E6E601280AD024
:103860006868226A00F48031914202BF00F470104F
:10387000616A884201D0012000E00020BDE8F283A7
:1038800000203066FEF758BA2DE9F0410400884662
:1038900045D0534E306800F00700404502D200F09A
:1038A00064F83CD12078474D810705D56A68A06847
:1038B00022F0F00202436A602178C80727D56168C8
:1038C000012902D100F05BF804E00229286803D145
:1038D000C0F3406018B922E0C0F34000F8B1686856
:1038E000800841EA80016960FEF726FA07466868A9
:1038F000616800F00C00B0EB810F08D0FEF71CFAF5
:10390000C01B41F289318842F1D303202BE030689B
:1039100000F00700804504D200F027F801D0012014
:1039200021E02078410705D56A68E06822F4E0626A
:1039300002436A602178080706D56968206921F486
:10394000605141EAC001696000F01EF86A682549CB
:103950001D4BC2F30312895CC84018601C48006804
:1039600000F010F90020BDE8F0813168C90848EA8C
:10397000C1013160306800F0070040457047286899
:10398000C0F340407047000010B517490A6802F0C4
:103990000C00082814D100BF15A3C2F38340D20342
:1039A000185C896A09D500BF15A4084B01F00F0106
:1039B000625CB3FBF2F2504310BD0C49484310BDAA
:1039C000024810BD001002400C00002000127A00D6
:1039D0000800002000004242800442420070004083
:1039E00000200240B84600080410024000093D00D3
:1039F00002030405060708090A0B0C0D0E0F101030
:103A00000102030405060708090A0B0C0D0E0F102E
:103A10002DE9FC410546002428683D4EC10350D5E0
:103A20003068C10009D4306840F080503060012413
:103A3000316801F0805100910098364F3868C10517
:103A400011D4386840F480703860FEF775F980460C
:103A50003868C10507D4FEF76FF9A0EB08006528A8
:103A6000F6D3032052E0706810F440701EBF6968FE
:103A700001F44071884219D02749706801220A6018
:103A8000002320F440700B607060C0070ED5FEF775
:103A900053F907467068C0F3400038B9FEF74CF997
:103AA000C01B41F289318842F4D3DAE77268686852
:103AB00022F44072024372601CB1306820F08050E2
:103AC00030602978C80705D57169A868890840EA77
:103AD000810171612978880605D57169E86821F04E
:103AE0001001014371612978080605D531692869FB
:103AF00021F4F871014331612968C80405D5716961
:103B0000686921F48071014371610020BDE8F6818C
:103B10001C100240007000404004424262F30F2239
:103B200062F31F42401810F0030308D0C91A1FD3D4
:103B3000DB0748BF00F8012D28BF20F8022D130035
:103B400030B414461546103928BF20E93C00FAD895
:103B5000490728BF20E90C0048BF40F8042D890020
:103B600028BF20F8022D48BF00F8012D30BC704757
:103B7000C91818BF00F8012DCB0728BF00F8012D88
:103B80007047000038B50D4D0D4B2A7804464FF4B0
:103B90007A711868B1FBF2F2B0FBF2F0FFF7E2F8CD
:103BA00050B9102C08D2002221464FF0FF30FFF709
:103BB000B1F8AC60002032BD012032BD0000002011
:103BC0000C00002000B500BF130096469446103943
:103BD00028BFA0E80C50FAD85FEA417C28BF0CC08F
:103BE00048BF40F8042BC90728BF20F8022B48BF64
:103BF00000F8012B00BD00002DE9F44F2DED108BD6
:103C000083B01C460B469FED037AADF80240ADF839
:103C10000010AEE1F304353F002401250194029524
:103C2000DDF84CE0019BBDF802401B190193019E99
:103C3000019CDDF804900EEBC6066400D6ED006A28
:103C40000EEBC4061D1996ED006A0EEBC5065F1952
:103C5000D6ED005A0EEBC70603EB070B96ED005AA4
:103C60000EEBCB0603EB0B0CD6ED004A0EEBCC06AD
:103C7000634496ED004A0EEBC306D6ED003A0EF112
:103C8000040606EBC90696ED003A139E06F1040EF3
:103C90000EEBC404D4ED002A341D04EBC50595EDEC
:103CA000002A351D05EBC70405EBC303D4ED001A4C
:103CB00093ED000A05EBCB0494ED001A05EBCC0460
:103CC000D4ED000ADDF80840BDF8005001EBC40354
:103CD00002EB0408D3ED008A02EB080B02EB0B0C9D
:103CE00002EB0C0E01EBCE0702EB0E06D7ED007ACD
:103CF00001EBC60738EEA78A38EEE79AD7ED007ACF
:103D000001EBC80702EB0609D7ED009A79EEA78A06
:103D100001EBC90779EEE79AD7ED007A01EBCB0703
:103D200002EB090A97ED00AA3AEE27BA01EBCA079F
:103D30007AEE677A97ED00AA01EBCC07D7ED00AADF
:103D40007AEE8ABA3AEECAAA78EE4BAA38EE0B8A15
:103D500038EEEBBA78EEAB8A78EE28BA0F1DC3EDD9
:103D600000BA07EBCE0778EE68BA97ED008AD3ED7C
:103D7000018A0F1D78EE88DA07EBC60738EEC88A8D
:103D8000D7ED008A0F1D07EBC80797ED00CA0F1D7E
:103D90003CEE28EA07EBC9073CEE68CAD7ED008A7B
:103DA0000F1D07EBCB07D7ED00CA0F1D3CEEA8FA9D
:103DB00007EBCA077CEEE88AD7ED00CA0F1D07EBB8
:103DC000CC0797ED00DA7DEE2CEA7DEE6CCA3DEE75
:103DD000CFDA7DEE8FDA3EEE6EFA7EEE2EEA3AEE26
:103DE0008FEA7AEECFAA3DEEAEFA7DEEEEEA7DEEF8
:103DF0004BDA3DEE0BBA25EE2BDA01EBCE0783ED65
:103E000001FA01EEAEDA87ED00DA0F1D65EE2EEA5B
:103E100007EBCE0741EEEBEAC7ED00EA66EE0EBA1D
:103E200001EBCB0742EEADBAC7ED00BA0F1D26EE8F
:103E30002DDA07EBCB0702EECEDA87ED00DA64EE7F
:103E40002ADA01EBC90740EE8BDAC7ED00DA0F1D65
:103E500024EE0BBA07EBC90700EEEABA87ED00BA09
:103E600079EECAAA79EE8A9A29EE87BA7CEE6C9A24
:103E700029EE87DA7CEE2C9A6AEE87AA69EE87BA79
:103E800079EE6A9A39EE2AAA37EECB9A77EE8BAAA8
:103E900038EEEBCA78EE4D7A38EE0DBA78EEAB8A92
:103EA0003AEE288A7AEE688A7BEE6ABA39EE8CAAF4
:103EB0007BEE2AAA79EECC9A37EEC9BA77EE897AE8
:103EC00026EE889A01EBC80703EE2B9A87ED009A3D
:103ED0000F1D66EEABBA07EBC80743EE48BAC7ED55
:103EE00000BA23EEA88A01EBCA0700EE2A8A87ED02
:103EF000008A0F1D23EEAA9A07EBCA0700EE689A04
:103F000087ED009A64EE8A8A01EBC60741EE0B8AC0
:103F1000C7ED008A0F1D24EE8B8A07EBC60601EE63
:103F20004A8A86ED008A25EEA99A01EBCC0602EEBC
:103F3000279A86ED009A0E1D65EEA77A06EBCC0651
:103F4000041942EE697AAC42C6ED007A03EBC00375
:103F5000FFF4BEAE029BADF800505B1C934202938F
:103F6000FFF45EAE0846BDF80210C9001346ADF876
:103F70000210DA08BDF800A000268146D9ED000A3B
:103F800091195418151902EB050800EBC80702EB4C
:103F9000080B97ED000A30EE802A00EBCB0730EEDD
:103FA000C00AD7ED000A00EBC10702EB0B0C97ED3E
:103FB000001A71EE203A00EBCC0731EE601AD7ED13
:103FC000000A00EBC40702EB0C0ED7ED001A31EE2D
:103FD000A03A00EBCE0771EEE00AD7ED001A00EB35
:103FE000C5079E19D7ED002A32EEA14A72EEE11AFA
:103FF00072EE432A32EE032A33EEC43A73EE843A69
:1040000032EE234A00EBC80789ED004A32EE632AFC
:1040100087ED002A071D07EBC807D9ED013A97ED98
:10402000002A071D73EE824A07EBCB0733EEC22A44
:10403000D7ED003A071D07EBC10797ED004A071DB2
:1040400034EE235A07EBCC0734EE634AD7ED003A3F
:10405000071D07EBC407D7ED005A071D07EBCE0776
:1040600035EEA36AD7ED006A071D07EBC50775EEAD
:10407000E33AD7ED007A77EEA65A77EEE66A74EE69
:10408000C67A74EE864A35EE656A35EE255A071D06
:1040900074EE855A07EBC808C9ED015A74EEC54A9B
:1040A000C8ED004A00EBC40832EE865A88ED005A8B
:1040B00000EBCC0872EEC62A07EBC404C8ED002A58
:1040C00077EEC34AC4ED004A041D04EBCC0437EE7E
:1040D000833A71EE612A31EE211A84ED003A62EEE4
:1040E000872A61EE071A34EE661A30EE623A21EE44
:1040F000071A30EE220A34EE264A70EEE12A72EEFA
:10410000414A24EE074A70EEA10A32EE011A33EE5C
:10411000C42A73EE841A00EBC10470EE213A00EB5E
:10412000CE07C4ED003A30EE610A00EBCB0487ED18
:10413000000A73EE021AC4ED001A00EBC504071D55
:1041400033EE422A07EBC10184ED002A31EE603ADA
:1041500081ED003A041D04EBCE0131EE200A81ED21
:10416000000A07EBCB0174EEE20A04EBC505C1EDD2
:10417000000A34EEA20A564585ED000A09EBC30990
:10418000FFF4FCAE0146082A1846BFF445AD03B063
:10419000BDEC108B01B0BDE8F08FF0B500230C0032
:1041A0001CD014885588A408AD0850F8246050F835
:1041B000257040F8247040F82560071D061D57F84B
:1041C000257056F8246000F1040E9B1C4EF82470F4
:1041D000041D121D44F825608B42E2D3F0BD00009F
:1041E000080000021000000418000006200000086B
:1041F0002800000A3000000C3800000E4800400281
:104200005000400458004006600040086800400A22
:104210007000400C7800400E8800800290008004FE
:1042200098008006A0008008A800800AB000800CDA
:10423000B800800EC800C002D000C004D800C0067C
:10424000E000C008E800C00AF000C00CF800C00E92
:1042500008010003100100051801000720010009F2
:104260002801000B3001000D3801000F4801400308
:104270005001400558014007600140096801400BAA
:104280007001400D7801400F880180039001800586
:1042900098018007A0018009A801800BB001800D62
:1042A000B801800FC801C003D001C005D801C00704
:1042B000E001C009E801C00BF001C00DF801C00F1A
:1042C0001002080418020806200208082802080A3A
:1042D0003002080C3802080E500248045802480602
:1042E000600248086802480A7002480C7802480ECA
:1042F0009002880498028806A0028808A802880A0A
:10430000B002880CB802880ED002C804D802C806D1
:10431000E002C808E802C80AF002C80CF802C80E99
:104320001003080518030807200308092803080BD1
:104330003003080D3803080F500348055803480799
:10434000600348096803480B7003480D7803480F61
:104350009003880598038807A0038809A803880BA1
:10436000B003880DB803880FD003C805D803C80769
:10437000E003C809E803C80BF003C80DF803C80F31
:1043800018041006200410082804100A3004100C29
:104390003804100E58045006600450086804500A8F
:1043A0007004500C7804500E98049006A0049008F5
:1043B000A804900AB004900CB804900ED804D0065B
:1043C000E004D008E804D00AF004D00CF804D00EC1
:1043D00018051007200510092805100B3005100DD1
:1043E0003805100F58055007600550096805500B37
:1043F0007005500D7805500F98059007A00590099D
:10440000A805900BB005900DB805900FD805D00702
:10441000E005D009E805D00BF005D00DF805D00F68
:10442000200618082806180A3006180C3806180E38
:10443000600658086806580A7006580C7806580E28
:10444000A0069808A806980AB006980CB806980E18
:10445000E006D808E806D80AF006D80CF806D80E08
:10446000200718092807180B3007180D3807180FF0
:10447000600758096807580B7007580D7807580FE0
:10448000A0079809A807980BB007980DB807980FD0
:10449000E007D809E807D80BF007D80DF807D80FC0
:1044A0002808200A3008200C3808200E6808600A06
:1044B0007008600C7808600EA808A00AB008A00C6C
:1044C000B808A00EE808E00AF008E00CF808E00ED2
:1044D0002809200B3009200D3809200F6809600BCE
:1044E0007009600D7809600FA809A00BB009A00D34
:1044F000B809A00FE809E00BF009E00DF809E00F9A
:10450000300A280C380A280E700A680C780A680EDF
:10451000B00AA80CB80AA80EF00AE80CF80AE80ECF
:10452000300B280D380B280F700B680D780B680FB7
:10453000B00BA80DB80BA80FF00BE80DF80BE80FA7
:10454000380C300E780C700EB80CB00EF80CF00E63
:10455000380D300F780D700FB80DB00FF80DF00F4B
:10456000FEE7FEE7FEE7FEE7FEE7704770477047AD
:1045700080B500F03DF81B488188491E8AB212B907
:10458000012101700A218180C188491E8AB212B9B5
:10459000012141701921C1800189491E8AB212B9D5
:1045A00001218170642101814189491E8AB21AB9B1
:1045B0000121C1704FF47A71418101BD10B50A48E3
:1045C0000A4AC16B09684B0702D50124146003E055
:1045D0008B0744BF012454609160BDE81040FDF793
:1045E00019BB000010000020BC180020A8210020EA
:1045F0000248416802788A18426070470000002033
:1046000030B4002512E050F8042BD30744BF4A44CD
:10461000521E091F042942F8045BFAD213468C0784
:1046200044BF15809B1CC90748BF1D7050F8041B70
:104630000029E8D130BC704710B5074979441831DA
:10464000064C7C44163404E00A68081D114488476F
:104650000146A142F8D110BD2C0000004C00000022
:104660004EF68851CEF20001086840F470000860F0
:10467000BFF34F8FBFF36F8F4FF00170E1EE100A61
:10468000704700007DFFFFFF982100001C00002004
:10469000000000007BD6FFFF1C000000900000001F
:1046A00000000020000000000248016841F4700191
:1046B0000160704788ED00E000000000000000008D
:1046C000010203040607080900F00DF8002801D0D4
:1046D000FFF7B2FFAFF300800020AFF30080FDF7DB
:1046E0001DFC00F002F80120704700F001B8000046
:1046F0000746384600F002F8FBE7000080B5AFF34C
:104700000080024A11001820ABBEFBE72600020021
:104710000548014603B4684680F30988AFF300807A
:10472000FFF79EFFFFF7D0FFA5EDF5FE01000000AB
:10473000000000001000000000127A0000000000DD
:104740000A0019006400E803000200008801000864
:10475000E0410008C00100000148804701480047CF
:10476000A946000811470008FFF7FEBFFFF7FEBF8C
:10477000FFF7FEBFFFF7FEBFFFF7FEBFFFF7FEBF6D
:10478000FFF7FEBFFFF7FEBFFFF7FEBFFFF7FEBF5D
:10479000FFF7FEBFFFF7FEBFFFF7FEBFFFF7FEBF4D
:1047A000FFF7FEBFFFF7FEBFFFF7FEBFFFF7FEBF3D
:1047B000FFF7FEBFFFF7FEBFFFF7FEBFFFF7FEBF2D
:1047C000FFF7FEBFFFF7FEBFFFF7FEBFFFF7FEBF1D
:1047D000FFF7FEBFFFF7FEBFFFF7FEBFFFF7FEBF0D
:1047E000FFF7FEBFFFF7FEBFFFF7FEBFFFF7FEBFFD
:1047F000FFF7FEBFFFF7FEBFFFF7FEBFFFF7FEBFED
:10480000FFF7FEBFFFF7FEBFFFF7FEBFFFF7FEBFDC
:040000050800471197
:00000001FF
